{
  "contractName": "InitCoin",
  "abi": [
    {
      "inputs": [
        {
          "internalType": "uint256",
          "name": "_initalsupply",
          "type": "uint256"
        }
      ],
      "stateMutability": "nonpayable",
      "type": "constructor"
    },
    {
      "anonymous": false,
      "inputs": [
        {
          "indexed": true,
          "internalType": "address",
          "name": "owner",
          "type": "address"
        },
        {
          "indexed": true,
          "internalType": "address",
          "name": "spender",
          "type": "address"
        },
        {
          "indexed": false,
          "internalType": "uint256",
          "name": "value",
          "type": "uint256"
        }
      ],
      "name": "Approval",
      "type": "event"
    },
    {
      "anonymous": false,
      "inputs": [
        {
          "indexed": true,
          "internalType": "address",
          "name": "from",
          "type": "address"
        },
        {
          "indexed": true,
          "internalType": "address",
          "name": "to",
          "type": "address"
        },
        {
          "indexed": false,
          "internalType": "uint256",
          "name": "value",
          "type": "uint256"
        }
      ],
      "name": "Transfer",
      "type": "event"
    },
    {
      "inputs": [],
      "name": "allowAbleTransfer",
      "outputs": [
        {
          "internalType": "uint256",
          "name": "",
          "type": "uint256"
        }
      ],
      "stateMutability": "view",
      "type": "function",
      "constant": true
    },
    {
      "inputs": [
        {
          "internalType": "address",
          "name": "owner",
          "type": "address"
        },
        {
          "internalType": "address",
          "name": "spender",
          "type": "address"
        }
      ],
      "name": "allowance",
      "outputs": [
        {
          "internalType": "uint256",
          "name": "",
          "type": "uint256"
        }
      ],
      "stateMutability": "view",
      "type": "function",
      "constant": true
    },
    {
      "inputs": [
        {
          "internalType": "address",
          "name": "spender",
          "type": "address"
        },
        {
          "internalType": "uint256",
          "name": "amount",
          "type": "uint256"
        }
      ],
      "name": "approve",
      "outputs": [
        {
          "internalType": "bool",
          "name": "",
          "type": "bool"
        }
      ],
      "stateMutability": "nonpayable",
      "type": "function"
    },
    {
      "inputs": [
        {
          "internalType": "address",
          "name": "account",
          "type": "address"
        }
      ],
      "name": "balanceOf",
      "outputs": [
        {
          "internalType": "uint256",
          "name": "",
          "type": "uint256"
        }
      ],
      "stateMutability": "view",
      "type": "function",
      "constant": true
    },
    {
      "inputs": [
        {
          "internalType": "address",
          "name": "",
          "type": "address"
        }
      ],
      "name": "balances",
      "outputs": [
        {
          "internalType": "uint256",
          "name": "",
          "type": "uint256"
        }
      ],
      "stateMutability": "view",
      "type": "function",
      "constant": true
    },
    {
      "inputs": [],
      "name": "decimals",
      "outputs": [
        {
          "internalType": "uint8",
          "name": "",
          "type": "uint8"
        }
      ],
      "stateMutability": "view",
      "type": "function",
      "constant": true
    },
    {
      "inputs": [
        {
          "internalType": "address",
          "name": "spender",
          "type": "address"
        },
        {
          "internalType": "uint256",
          "name": "subtractedValue",
          "type": "uint256"
        }
      ],
      "name": "decreaseAllowance",
      "outputs": [
        {
          "internalType": "bool",
          "name": "",
          "type": "bool"
        }
      ],
      "stateMutability": "nonpayable",
      "type": "function"
    },
    {
      "inputs": [
        {
          "internalType": "address",
          "name": "spender",
          "type": "address"
        },
        {
          "internalType": "uint256",
          "name": "addedValue",
          "type": "uint256"
        }
      ],
      "name": "increaseAllowance",
      "outputs": [
        {
          "internalType": "bool",
          "name": "",
          "type": "bool"
        }
      ],
      "stateMutability": "nonpayable",
      "type": "function"
    },
    {
      "inputs": [],
      "name": "name",
      "outputs": [
        {
          "internalType": "string",
          "name": "",
          "type": "string"
        }
      ],
      "stateMutability": "view",
      "type": "function",
      "constant": true
    },
    {
      "inputs": [],
      "name": "symbol",
      "outputs": [
        {
          "internalType": "string",
          "name": "",
          "type": "string"
        }
      ],
      "stateMutability": "view",
      "type": "function",
      "constant": true
    },
    {
      "inputs": [],
      "name": "totalSupply",
      "outputs": [
        {
          "internalType": "uint256",
          "name": "",
          "type": "uint256"
        }
      ],
      "stateMutability": "view",
      "type": "function",
      "constant": true
    },
    {
      "inputs": [
        {
          "internalType": "address",
          "name": "recipient",
          "type": "address"
        },
        {
          "internalType": "uint256",
          "name": "amount",
          "type": "uint256"
        }
      ],
      "name": "transfer",
      "outputs": [
        {
          "internalType": "bool",
          "name": "",
          "type": "bool"
        }
      ],
      "stateMutability": "nonpayable",
      "type": "function"
    },
    {
      "inputs": [
        {
          "internalType": "address",
          "name": "sender",
          "type": "address"
        },
        {
          "internalType": "address",
          "name": "recipient",
          "type": "address"
        },
        {
          "internalType": "uint256",
          "name": "amount",
          "type": "uint256"
        }
      ],
      "name": "transferFrom",
      "outputs": [
        {
          "internalType": "bool",
          "name": "",
          "type": "bool"
        }
      ],
      "stateMutability": "nonpayable",
      "type": "function"
    },
    {
      "stateMutability": "payable",
      "type": "receive",
      "payable": true
    },
    {
      "inputs": [
        {
          "internalType": "address",
          "name": "_minter",
          "type": "address"
        },
        {
          "internalType": "uint256",
          "name": "_tokenMint",
          "type": "uint256"
        }
      ],
      "name": "freeMinting",
      "outputs": [],
      "stateMutability": "nonpayable",
      "type": "function"
    },
    {
      "inputs": [
        {
          "internalType": "uint256",
          "name": "_amount",
          "type": "uint256"
        }
      ],
      "name": "paidMinting",
      "outputs": [],
      "stateMutability": "payable",
      "type": "function",
      "payable": true
    }
  ],
  "bytecode": "0x6080604052606460055462000015919062000481565b6006553480156200002557600080fd5b5060405162001eb038038062001eb083398181016040528101906200004b919062000370565b6040518060400160405280600881526020017f496e6974436f696e0000000000000000000000000000000000000000000000008152506040518060400160405280600281526020017f49430000000000000000000000000000000000000000000000000000000000008152508160039080519060200190620000cf929190620002a9565b508060049080519060200190620000e8929190620002a9565b505050806005819055506200010d338262000114640100000000026401000000009004565b50620005c9565b600073ffffffffffffffffffffffffffffffffffffffff168273ffffffffffffffffffffffffffffffffffffffff16141562000187576040517f08c379a00000000000000000000000000000000000000000000000000000000081526004016200017e90620003d4565b60405180910390fd5b620001a4600083836200029f640100000000026401000000009004565b8060026000828254620001b8919062000424565b92505081905550806000808473ffffffffffffffffffffffffffffffffffffffff1673ffffffffffffffffffffffffffffffffffffffff16815260200190815260200160002060008282546200020f919062000424565b925050819055508173ffffffffffffffffffffffffffffffffffffffff16600073ffffffffffffffffffffffffffffffffffffffff167fddf252ad1be2c89b69c2b068fc378daa952ba7f163c4a11628f55a4df523b3ef83604051620002769190620003f6565b60405180910390a36200029b60008383620002a4640100000000026401000000009004565b5050565b505050565b505050565b828054620002b790620004c3565b90600052602060002090601f016020900481019282620002db576000855562000327565b82601f10620002f657805160ff191683800117855562000327565b8280016001018555821562000327579182015b828111156200032657825182559160200191906001019062000309565b5b5090506200033691906200033a565b5090565b5b80821115620003555760008160009055506001016200033b565b5090565b6000815190506200036a81620005af565b92915050565b6000602082840312156200038357600080fd5b6000620003938482850162000359565b91505092915050565b6000620003ab601f8362000413565b9150620003b88262000586565b602082019050919050565b620003ce81620004b9565b82525050565b60006020820190508181036000830152620003ef816200039c565b9050919050565b60006020820190506200040d6000830184620003c3565b92915050565b600082825260208201905092915050565b60006200043182620004b9565b91506200043e83620004b9565b9250827fffffffffffffffffffffffffffffffffffffffffffffffffffffffffffffffff03821115620004765762000475620004f9565b5b828201905092915050565b60006200048e82620004b9565b91506200049b83620004b9565b925082620004ae57620004ad62000528565b5b828204905092915050565b6000819050919050565b60006002820490506001821680620004dc57607f821691505b60208210811415620004f357620004f262000557565b5b50919050565b7f4e487b7100000000000000000000000000000000000000000000000000000000600052601160045260246000fd5b7f4e487b7100000000000000000000000000000000000000000000000000000000600052601260045260246000fd5b7f4e487b7100000000000000000000000000000000000000000000000000000000600052602260045260246000fd5b7f45524332303a206d696e7420746f20746865207a65726f206164647265737300600082015250565b620005ba81620004b9565b8114620005c657600080fd5b50565b6118d780620005d96000396000f3fe608060405260043610610109576000357c01000000000000000000000000000000000000000000000000000000009004806370a08231116100a7578063a457c2d711610076578063a457c2d714610337578063a9059cbb14610374578063cfa49b5c146103b1578063dd62ed3e146103dc57610110565b806370a082311461028a5780637ea994cd146102c757806395d89b41146102e3578063a399f7ee1461030e57610110565b806323b872dd116100e357806323b872dd146101a857806327e235e3146101e5578063313ce56714610222578063395093511461024d57610110565b806306fdde0314610115578063095ea7b31461014057806318160ddd1461017d57610110565b3661011057005b600080fd5b34801561012157600080fd5b5061012a610419565b604051610137919061129c565b60405180910390f35b34801561014c57600080fd5b5061016760048036038101906101629190611058565b6104ab565b6040516101749190611281565b60405180910390f35b34801561018957600080fd5b506101926104c9565b60405161019f91906113fe565b60405180910390f35b3480156101b457600080fd5b506101cf60048036038101906101ca9190611009565b6104d3565b6040516101dc9190611281565b60405180910390f35b3480156101f157600080fd5b5061020c60048036038101906102079190610fa4565b6105cb565b60405161021991906113fe565b60405180910390f35b34801561022e57600080fd5b506102376105e3565b6040516102449190611419565b60405180910390f35b34801561025957600080fd5b50610274600480360381019061026f9190611058565b6105ec565b6040516102819190611281565b60405180910390f35b34801561029657600080fd5b506102b160048036038101906102ac9190610fa4565b610698565b6040516102be91906113fe565b60405180910390f35b6102e160048036038101906102dc9190611094565b6106e0565b005b3480156102ef57600080fd5b506102f8610786565b604051610305919061129c565b60405180910390f35b34801561031a57600080fd5b5061033560048036038101906103309190611058565b610818565b005b34801561034357600080fd5b5061035e60048036038101906103599190611058565b610826565b60405161036b9190611281565b60405180910390f35b34801561038057600080fd5b5061039b60048036038101906103969190611058565b610911565b6040516103a89190611281565b60405180910390f35b3480156103bd57600080fd5b506103c661092f565b6040516103d391906113fe565b60405180910390f35b3480156103e857600080fd5b5061040360048036038101906103fe9190610fcd565b610935565b60405161041091906113fe565b60405180910390f35b6060600380546104289061152e565b80601f01602080910402602001604051908101604052809291908181526020018280546104549061152e565b80156104a15780601f10610476576101008083540402835291602001916104a1565b820191906000526020600020905b81548152906001019060200180831161048457829003601f168201915b5050505050905090565b60006104bf6104b86109bc565b84846109c4565b6001905092915050565b6000600254905090565b60006104e0848484610b8f565b6000600160008673ffffffffffffffffffffffffffffffffffffffff1673ffffffffffffffffffffffffffffffffffffffff168152602001908152602001600020600061052b6109bc565b73ffffffffffffffffffffffffffffffffffffffff1673ffffffffffffffffffffffffffffffffffffffff168152602001908152602001600020549050828110156105ab576040517f08c379a00000000000000000000000000000000000000000000000000000000081526004016105a29061131e565b60405180910390fd5b6105bf856105b76109bc565b8584036109c4565b60019150509392505050565b60076020528060005260406000206000915090505481565b60006012905090565b600061068e6105f96109bc565b8484600160006106076109bc565b73ffffffffffffffffffffffffffffffffffffffff1673ffffffffffffffffffffffffffffffffffffffff16815260200190815260200160002060008873ffffffffffffffffffffffffffffffffffffffff1673ffffffffffffffffffffffffffffffffffffffff168152602001908152602001600020546106899190611450565b6109c4565b6001905092915050565b60008060008373ffffffffffffffffffffffffffffffffffffffff1673ffffffffffffffffffffffffffffffffffffffff168152602001908152602001600020549050919050565b600081905060006106ef6104c9565b905060008211610734576040517f08c379a000000000000000000000000000000000000000000000000000000000815260040161072b9061139e565b60405180910390fd5b80821115610777576040517f08c379a000000000000000000000000000000000000000000000000000000000815260040161076e9061137e565b60405180910390fd5b6107813383610e10565b505050565b6060600480546107959061152e565b80601f01602080910402602001604051908101604052809291908181526020018280546107c19061152e565b801561080e5780601f106107e35761010080835404028352916020019161080e565b820191906000526020600020905b8154815290600101906020018083116107f157829003601f168201915b5050505050905090565b6108228282610e10565b5050565b600080600160006108356109bc565b73ffffffffffffffffffffffffffffffffffffffff1673ffffffffffffffffffffffffffffffffffffffff16815260200190815260200160002060008573ffffffffffffffffffffffffffffffffffffffff1673ffffffffffffffffffffffffffffffffffffffff168152602001908152602001600020549050828110156108f2576040517f08c379a00000000000000000000000000000000000000000000000000000000081526004016108e9906113be565b60405180910390fd5b6109066108fd6109bc565b858584036109c4565b600191505092915050565b600061092561091e6109bc565b8484610b8f565b6001905092915050565b60065481565b6000600160008473ffffffffffffffffffffffffffffffffffffffff1673ffffffffffffffffffffffffffffffffffffffff16815260200190815260200160002060008373ffffffffffffffffffffffffffffffffffffffff1673ffffffffffffffffffffffffffffffffffffffff16815260200190815260200160002054905092915050565b600033905090565b600073ffffffffffffffffffffffffffffffffffffffff168373ffffffffffffffffffffffffffffffffffffffff161415610a34576040517f08c379a0000000000000000000000000000000000000000000000000000000008152600401610a2b9061135e565b60405180910390fd5b600073ffffffffffffffffffffffffffffffffffffffff168273ffffffffffffffffffffffffffffffffffffffff161415610aa4576040517f08c379a0000000000000000000000000000000000000000000000000000000008152600401610a9b906112de565b60405180910390fd5b80600160008573ffffffffffffffffffffffffffffffffffffffff1673ffffffffffffffffffffffffffffffffffffffff16815260200190815260200160002060008473ffffffffffffffffffffffffffffffffffffffff1673ffffffffffffffffffffffffffffffffffffffff168152602001908152602001600020819055508173ffffffffffffffffffffffffffffffffffffffff168373ffffffffffffffffffffffffffffffffffffffff167f8c5be1e5ebec7d5bd14f71427d1e84f3dd0314c0f7b2291e5b200ac8c7c3b92583604051610b8291906113fe565b60405180910390a3505050565b600073ffffffffffffffffffffffffffffffffffffffff168373ffffffffffffffffffffffffffffffffffffffff161415610bff576040517f08c379a0000000000000000000000000000000000000000000000000000000008152600401610bf69061133e565b60405180910390fd5b600073ffffffffffffffffffffffffffffffffffffffff168273ffffffffffffffffffffffffffffffffffffffff161415610c6f576040517f08c379a0000000000000000000000000000000000000000000000000000000008152600401610c66906112be565b60405180910390fd5b610c7a838383610f70565b60008060008573ffffffffffffffffffffffffffffffffffffffff1673ffffffffffffffffffffffffffffffffffffffff16815260200190815260200160002054905081811015610d00576040517f08c379a0000000000000000000000000000000000000000000000000000000008152600401610cf7906112fe565b60405180910390fd5b8181036000808673ffffffffffffffffffffffffffffffffffffffff1673ffffffffffffffffffffffffffffffffffffffff16815260200190815260200160002081905550816000808573ffffffffffffffffffffffffffffffffffffffff1673ffffffffffffffffffffffffffffffffffffffff1681526020019081526020016000206000828254610d939190611450565b925050819055508273ffffffffffffffffffffffffffffffffffffffff168473ffffffffffffffffffffffffffffffffffffffff167fddf252ad1be2c89b69c2b068fc378daa952ba7f163c4a11628f55a4df523b3ef84604051610df791906113fe565b60405180910390a3610e0a848484610f75565b50505050565b600073ffffffffffffffffffffffffffffffffffffffff168273ffffffffffffffffffffffffffffffffffffffff161415610e80576040517f08c379a0000000000000000000000000000000000000000000000000000000008152600401610e77906113de565b60405180910390fd5b610e8c60008383610f70565b8060026000828254610e9e9190611450565b92505081905550806000808473ffffffffffffffffffffffffffffffffffffffff1673ffffffffffffffffffffffffffffffffffffffff1681526020019081526020016000206000828254610ef39190611450565b925050819055508173ffffffffffffffffffffffffffffffffffffffff16600073ffffffffffffffffffffffffffffffffffffffff167fddf252ad1be2c89b69c2b068fc378daa952ba7f163c4a11628f55a4df523b3ef83604051610f5891906113fe565b60405180910390a3610f6c60008383610f75565b5050565b505050565b505050565b600081359050610f8981611873565b92915050565b600081359050610f9e8161188a565b92915050565b600060208284031215610fb657600080fd5b6000610fc484828501610f7a565b91505092915050565b60008060408385031215610fe057600080fd5b6000610fee85828601610f7a565b9250506020610fff85828601610f7a565b9150509250929050565b60008060006060848603121561101e57600080fd5b600061102c86828701610f7a565b935050602061103d86828701610f7a565b925050604061104e86828701610f8f565b9150509250925092565b6000806040838503121561106b57600080fd5b600061107985828601610f7a565b925050602061108a85828601610f8f565b9150509250929050565b6000602082840312156110a657600080fd5b60006110b484828501610f8f565b91505092915050565b6110c6816114b8565b82525050565b60006110d782611434565b6110e1818561143f565b93506110f18185602086016114fb565b6110fa816115be565b840191505092915050565b600061111260238361143f565b915061111d826115cf565b604082019050919050565b600061113560228361143f565b91506111408261161e565b604082019050919050565b600061115860268361143f565b91506111638261166d565b604082019050919050565b600061117b60288361143f565b9150611186826116bc565b604082019050919050565b600061119e60258361143f565b91506111a98261170b565b604082019050919050565b60006111c160248361143f565b91506111cc8261175a565b604082019050919050565b60006111e460208361143f565b91506111ef826117a9565b602082019050919050565b6000611207601b8361143f565b9150611212826117d2565b602082019050919050565b600061122a60258361143f565b9150611235826117fb565b604082019050919050565b600061124d601f8361143f565b91506112588261184a565b602082019050919050565b61126c816114e4565b82525050565b61127b816114ee565b82525050565b600060208201905061129660008301846110bd565b92915050565b600060208201905081810360008301526112b681846110cc565b905092915050565b600060208201905081810360008301526112d781611105565b9050919050565b600060208201905081810360008301526112f781611128565b9050919050565b600060208201905081810360008301526113178161114b565b9050919050565b600060208201905081810360008301526113378161116e565b9050919050565b6000602082019050818103600083015261135781611191565b9050919050565b60006020820190508181036000830152611377816111b4565b9050919050565b60006020820190508181036000830152611397816111d7565b9050919050565b600060208201905081810360008301526113b7816111fa565b9050919050565b600060208201905081810360008301526113d78161121d565b9050919050565b600060208201905081810360008301526113f781611240565b9050919050565b60006020820190506114136000830184611263565b92915050565b600060208201905061142e6000830184611272565b92915050565b600081519050919050565b600082825260208201905092915050565b600061145b826114e4565b9150611466836114e4565b9250827fffffffffffffffffffffffffffffffffffffffffffffffffffffffffffffffff0382111561149b5761149a611560565b5b828201905092915050565b60006114b1826114c4565b9050919050565b60008115159050919050565b600073ffffffffffffffffffffffffffffffffffffffff82169050919050565b6000819050919050565b600060ff82169050919050565b60005b838110156115195780820151818401526020810190506114fe565b83811115611528576000848401525b50505050565b6000600282049050600182168061154657607f821691505b6020821081141561155a5761155961158f565b5b50919050565b7f4e487b7100000000000000000000000000000000000000000000000000000000600052601160045260246000fd5b7f4e487b7100000000000000000000000000000000000000000000000000000000600052602260045260246000fd5b6000601f19601f8301169050919050565b7f45524332303a207472616e7366657220746f20746865207a65726f206164647260008201527f6573730000000000000000000000000000000000000000000000000000000000602082015250565b7f45524332303a20617070726f766520746f20746865207a65726f20616464726560008201527f7373000000000000000000000000000000000000000000000000000000000000602082015250565b7f45524332303a207472616e7366657220616d6f756e742065786365656473206260008201527f616c616e63650000000000000000000000000000000000000000000000000000602082015250565b7f45524332303a207472616e7366657220616d6f756e742065786365656473206160008201527f6c6c6f77616e6365000000000000000000000000000000000000000000000000602082015250565b7f45524332303a207472616e736665722066726f6d20746865207a65726f20616460008201527f6472657373000000000000000000000000000000000000000000000000000000602082015250565b7f45524332303a20617070726f76652066726f6d20746865207a65726f2061646460008201527f7265737300000000000000000000000000000000000000000000000000000000602082015250565b7f4e6f7420656e6f75676820746f6b656e7320696e207468652072657365727665600082015250565b7f596f75206e65656420746f2073656e6420736f6d652065746865720000000000600082015250565b7f45524332303a2064656372656173656420616c6c6f77616e63652062656c6f7760008201527f207a65726f000000000000000000000000000000000000000000000000000000602082015250565b7f45524332303a206d696e7420746f20746865207a65726f206164647265737300600082015250565b61187c816114a6565b811461188757600080fd5b50565b611893816114e4565b811461189e57600080fd5b5056fea2646970667358221220ce42d544c8ea8e0c9ca22a56faae30ada6b39bea22a5951b9a6a02559bbd2ccf64736f6c63430008010033",
  "immutableReferences": {},
  "source": "pragma solidity ^0.8.0;\nimport \"@openzeppelin/contracts/token/ERC20/ERC20.sol\";\n\ncontract InitCoin is ERC20 {\n    \n    uint256 initialSupply ;\n\n    constructor(uint256 _initalsupply) ERC20(\"InitCoin\", \"IC\") {\n        initialSupply = _initalsupply;\n        _mint(msg.sender, _initalsupply);\n\n    }\n\n    uint256 public allowAbleTransfer = initialSupply / 100;\n\n    mapping(address => uint256) public balances;\n\n    // function sendInitCoin(address _recipient) public payable {\n\n    //     require(balanceOf(msg.sender) >= allowAbleTransfer,\"You Dont Have Sufficient balance\");\n    //     transfer(_recipient, allowAbleTransfer);\n    // }\n\n    function freeMinting(address _minter, uint256 _tokenMint) public {\n         _mint(_minter, _tokenMint);\n    }\n\n\n\n    function paidMinting(uint256 _amount) public payable {\n        uint256 amountTobuy = _amount;\n        // uint256 tokenBalance = balanceOf(address(this));\n        uint256 tokenBalance = totalSupply();\n        \n        // return tokenBalance;\n        require(amountTobuy > 0, \"You need to send some ether\");\n        require(amountTobuy <= tokenBalance, \"Not enough tokens in the reserve\");\n        _mint(msg.sender, amountTobuy);\n        // transfer(msg.sender, amountTobuy);\n            \n    }\n       \n\n    receive() external payable{\n\n    }\n\n    \n\n}\n",
  "sourcePath": "/home/pushpendra/Work/projects/blockchain/test-blockchain/src/contracts/InitCoin.sol",
  "compiler": {
    "name": "solc",
    "version": "0.8.1+commit.df193b15.Emscripten.clang"
  },
  "schemaVersion": "3.4.1",
  "updatedAt": "2021-07-22T10:23:47.353Z",
  "networkType": "ethereum",
  "devdoc": {
    "kind": "dev",
    "methods": {
      "allowance(address,address)": {
        "details": "See {IERC20-allowance}."
      },
      "approve(address,uint256)": {
        "details": "See {IERC20-approve}. Requirements: - `spender` cannot be the zero address."
      },
      "balanceOf(address)": {
        "details": "See {IERC20-balanceOf}."
      },
      "decimals()": {
        "details": "Returns the number of decimals used to get its user representation. For example, if `decimals` equals `2`, a balance of `505` tokens should be displayed to a user as `5,05` (`505 / 10 ** 2`). Tokens usually opt for a value of 18, imitating the relationship between Ether and Wei. This is the value {ERC20} uses, unless this function is overridden; NOTE: This information is only used for _display_ purposes: it in no way affects any of the arithmetic of the contract, including {IERC20-balanceOf} and {IERC20-transfer}."
      },
      "decreaseAllowance(address,uint256)": {
        "details": "Atomically decreases the allowance granted to `spender` by the caller. This is an alternative to {approve} that can be used as a mitigation for problems described in {IERC20-approve}. Emits an {Approval} event indicating the updated allowance. Requirements: - `spender` cannot be the zero address. - `spender` must have allowance for the caller of at least `subtractedValue`."
      },
      "increaseAllowance(address,uint256)": {
        "details": "Atomically increases the allowance granted to `spender` by the caller. This is an alternative to {approve} that can be used as a mitigation for problems described in {IERC20-approve}. Emits an {Approval} event indicating the updated allowance. Requirements: - `spender` cannot be the zero address."
      },
      "name()": {
        "details": "Returns the name of the token."
      },
      "symbol()": {
        "details": "Returns the symbol of the token, usually a shorter version of the name."
      },
      "totalSupply()": {
        "details": "See {IERC20-totalSupply}."
      },
      "transfer(address,uint256)": {
        "details": "See {IERC20-transfer}. Requirements: - `recipient` cannot be the zero address. - the caller must have a balance of at least `amount`."
      },
      "transferFrom(address,address,uint256)": {
        "details": "See {IERC20-transferFrom}. Emits an {Approval} event indicating the updated allowance. This is not required by the EIP. See the note at the beginning of {ERC20}. Requirements: - `sender` and `recipient` cannot be the zero address. - `sender` must have a balance of at least `amount`. - the caller must have allowance for ``sender``'s tokens of at least `amount`."
      }
    },
    "version": 1
  },
  "userdoc": {
    "kind": "user",
    "methods": {},
    "version": 1
  }
}