{
  "contractName": "SendCoin",
  "abi": [
    {
      "anonymous": false,
      "inputs": [
        {
          "indexed": false,
          "internalType": "uint256",
          "name": "amount",
          "type": "uint256"
        }
      ],
      "name": "Bought",
      "type": "event"
    },
    {
      "inputs": [
        {
          "internalType": "contract IERC20",
          "name": "_token1",
          "type": "address"
        },
        {
          "internalType": "address",
          "name": "_sender",
          "type": "address"
        },
        {
          "internalType": "address",
          "name": "_reciver",
          "type": "address"
        },
        {
          "internalType": "uint256",
          "name": "payableAmount",
          "type": "uint256"
        }
      ],
      "name": "swap",
      "outputs": [],
      "stateMutability": "nonpayable",
      "type": "function"
    }
  ],
  "bytecode": "0x608060405234801561001057600080fd5b5061051b806100206000396000f3fe608060405234801561001057600080fd5b5060043610610048576000357c010000000000000000000000000000000000000000000000000000000090048063a9678a181461004d575b600080fd5b610067600480360381019061006291906102a8565b610069565b005b808473ffffffffffffffffffffffffffffffffffffffff1663dd62ed3e85306040518363ffffffff167c01000000000000000000000000000000000000000000000000000000000281526004016100c1929190610375565b60206040518083038186803b1580156100d957600080fd5b505afa1580156100ed573d6000803e3d6000fd5b505050506040513d601f19601f82011682018060405250810190610111919061030b565b1015610152576040517f08c379a0000000000000000000000000000000000000000000000000000000008152600401610149906103d5565b60405180910390fd5b61015e84848484610164565b50505050565b8373ffffffffffffffffffffffffffffffffffffffff166323b872dd8484846040518463ffffffff167c01000000000000000000000000000000000000000000000000000000000281526004016101bd9392919061039e565b602060405180830381600087803b1580156101d757600080fd5b505af11580156101eb573d6000803e3d6000fd5b505050506040513d601f19601f8201168201806040525081019061020f919061027f565b5050505050565b60008135905061022581610489565b92915050565b60008151905061023a816104a0565b92915050565b60008135905061024f816104b7565b92915050565b600081359050610264816104ce565b92915050565b600081519050610279816104ce565b92915050565b60006020828403121561029157600080fd5b600061029f8482850161022b565b91505092915050565b600080600080608085870312156102be57600080fd5b60006102cc87828801610240565b94505060206102dd87828801610216565b93505060406102ee87828801610216565b92505060606102ff87828801610255565b91505092959194509250565b60006020828403121561031d57600080fd5b600061032b8482850161026a565b91505092915050565b61033d81610406565b82525050565b60006103506019836103f5565b915061035b82610460565b602082019050919050565b61036f81610456565b82525050565b600060408201905061038a6000830185610334565b6103976020830184610334565b9392505050565b60006060820190506103b36000830186610334565b6103c06020830185610334565b6103cd6040830184610366565b949350505050565b600060208201905081810360008301526103ee81610343565b9050919050565b600082825260208201905092915050565b600061041182610436565b9050919050565b60008115159050919050565b600061042f82610406565b9050919050565b600073ffffffffffffffffffffffffffffffffffffffff82169050919050565b6000819050919050565b7f546f6b656e203120616c6c6f77616e636520746f6f206c6f7700000000000000600082015250565b61049281610406565b811461049d57600080fd5b50565b6104a981610418565b81146104b457600080fd5b50565b6104c081610424565b81146104cb57600080fd5b50565b6104d781610456565b81146104e257600080fd5b5056fea264697066735822122048f943bc0f1d3b1643bf8a093c4972699ee4709f13db05ba760990abf74eb36464736f6c63430008010033",
  "immutableReferences": {},
  "source": "pragma solidity ^0.8.0;\nimport \"@openzeppelin/contracts/token/ERC20/IERC20.sol\";\n\ncontract SendCoin {\n    function swap(\n        IERC20 _token1,\n        address _sender,\n        address _reciver,\n        uint256 payableAmount\n    ) public {\n        require(\n            _token1.allowance(_sender, address(this)) >= payableAmount,\n            \"Token 1 allowance too low\"\n        );\n        _safeTransferFrom(_token1, _sender, _reciver, payableAmount);\n    }\n\n    function _safeTransferFrom(\n        IERC20 token,\n        address sender,\n        address recipient,\n        uint256 amount\n    ) private {\n        token.transferFrom(sender, recipient, amount);\n    }\n\n    event Bought(uint256 amount);\n\n    // function Buy(IERC20 _token, uint256 amount) public payable {\n    //     // uint256 amountTobuy = amount;\n    //     uint256 amountTobuy = msg.value;\n    //     uint256 tokenBalance = _token.balanceOf(address(this));\n    //     require(amountTobuy > 0, \"You need to send some ether\");\n    //     // require(amountTobuy <= tokenBalance, \"Not enough tokens in the reserve\");\n    //     _token.transfer(msg.sender, amountTobuy);\n    // }\n}\n",
  "sourcePath": "/home/pushpendra/Work/projects/blockchain/test-blockchain/src/contracts/SendCoin.sol",
  "compiler": {
    "name": "solc",
    "version": "0.8.1+commit.df193b15.Emscripten.clang"
  },
  "schemaVersion": "3.4.1",
  "updatedAt": "2021-07-22T10:23:47.375Z",
  "networkType": "ethereum",
  "devdoc": {
    "kind": "dev",
    "methods": {},
    "version": 1
  },
  "userdoc": {
    "kind": "user",
    "methods": {},
    "version": 1
  }
}