{
  "contractName": "SendCoin",
  "abi": [
    {
      "anonymous": false,
      "inputs": [
        {
          "indexed": false,
          "internalType": "uint256",
          "name": "amount",
          "type": "uint256"
        }
      ],
      "name": "Bought",
      "type": "event"
    },
    {
      "inputs": [
        {
          "internalType": "contract IERC20",
          "name": "_token1",
          "type": "address"
        },
        {
          "internalType": "address",
          "name": "_sender",
          "type": "address"
        },
        {
          "internalType": "address",
          "name": "_reciver",
          "type": "address"
        },
        {
          "internalType": "uint256",
          "name": "payableAmount",
          "type": "uint256"
        }
      ],
      "name": "swap",
      "outputs": [],
      "stateMutability": "nonpayable",
      "type": "function"
    },
    {
      "inputs": [
        {
          "internalType": "contract IERC20",
          "name": "_token",
          "type": "address"
        },
        {
          "internalType": "uint256",
          "name": "amount",
          "type": "uint256"
        }
      ],
      "name": "Buy",
      "outputs": [],
      "stateMutability": "payable",
      "type": "function"
    }
  ],
  "bytecode": "0x608060405234801561001057600080fd5b506107cf806100206000396000f3fe608060405260043610610046576000357c010000000000000000000000000000000000000000000000000000000090048063a9678a181461004b578063e3d4187f14610074575b600080fd5b34801561005757600080fd5b50610072600480360381019061006d9190610470565b610090565b005b61008e600480360381019061008991906104d3565b61018b565b005b808473ffffffffffffffffffffffffffffffffffffffff1663dd62ed3e85306040518363ffffffff167c01000000000000000000000000000000000000000000000000000000000281526004016100e89291906105b7565b60206040518083038186803b15801561010057600080fd5b505afa158015610114573d6000803e3d6000fd5b505050506040513d601f19601f82011682018060405250810190610138919061050f565b1015610179576040517f08c379a000000000000000000000000000000000000000000000000000000000815260040161017090610640565b60405180910390fd5b6101858484848461032c565b50505050565b600034905060008373ffffffffffffffffffffffffffffffffffffffff166370a08231306040518263ffffffff167c01000000000000000000000000000000000000000000000000000000000281526004016101e7919061059c565b60206040518083038186803b1580156101ff57600080fd5b505afa158015610213573d6000803e3d6000fd5b505050506040513d601f19601f82011682018060405250810190610237919061050f565b90506000821161027c576040517f08c379a000000000000000000000000000000000000000000000000000000000815260040161027390610660565b60405180910390fd5b8373ffffffffffffffffffffffffffffffffffffffff1663a9059cbb33846040518363ffffffff167c01000000000000000000000000000000000000000000000000000000000281526004016102d3929190610617565b602060405180830381600087803b1580156102ed57600080fd5b505af1158015610301573d6000803e3d6000fd5b505050506040513d601f19601f820116820180604052508101906103259190610447565b5050505050565b8373ffffffffffffffffffffffffffffffffffffffff166323b872dd8484846040518463ffffffff167c0100000000000000000000000000000000000000000000000000000000028152600401610385939291906105e0565b602060405180830381600087803b15801561039f57600080fd5b505af11580156103b3573d6000803e3d6000fd5b505050506040513d601f19601f820116820180604052508101906103d79190610447565b5050505050565b6000813590506103ed8161073d565b92915050565b60008151905061040281610754565b92915050565b6000813590506104178161076b565b92915050565b60008135905061042c81610782565b92915050565b60008151905061044181610782565b92915050565b60006020828403121561045957600080fd5b6000610467848285016103f3565b91505092915050565b6000806000806080858703121561048657600080fd5b600061049487828801610408565b94505060206104a5878288016103de565b93505060406104b6878288016103de565b92505060606104c78782880161041d565b91505092959194509250565b600080604083850312156104e657600080fd5b60006104f485828601610408565b92505060206105058582860161041d565b9150509250929050565b60006020828403121561052157600080fd5b600061052f84828501610432565b91505092915050565b61054181610691565b82525050565b6000610554601983610680565b915061055f826106eb565b602082019050919050565b6000610577601b83610680565b915061058282610714565b602082019050919050565b610596816106e1565b82525050565b60006020820190506105b16000830184610538565b92915050565b60006040820190506105cc6000830185610538565b6105d96020830184610538565b9392505050565b60006060820190506105f56000830186610538565b6106026020830185610538565b61060f604083018461058d565b949350505050565b600060408201905061062c6000830185610538565b610639602083018461058d565b9392505050565b6000602082019050818103600083015261065981610547565b9050919050565b600060208201905081810360008301526106798161056a565b9050919050565b600082825260208201905092915050565b600061069c826106c1565b9050919050565b60008115159050919050565b60006106ba82610691565b9050919050565b600073ffffffffffffffffffffffffffffffffffffffff82169050919050565b6000819050919050565b7f546f6b656e203120616c6c6f77616e636520746f6f206c6f7700000000000000600082015250565b7f596f75206e65656420746f2073656e6420736f6d652065746865720000000000600082015250565b61074681610691565b811461075157600080fd5b50565b61075d816106a3565b811461076857600080fd5b50565b610774816106af565b811461077f57600080fd5b50565b61078b816106e1565b811461079657600080fd5b5056fea26469706673582212206d183e1981b5e1858b351ce6756354bb2375813ee95d4ef32be51ded7ea1cfa964736f6c63430008010033",
  "immutableReferences": {},
  "source": "pragma solidity ^0.8.0;\nimport \"@openzeppelin/contracts/token/ERC20/IERC20.sol\";\n\ncontract SendCoin {\n    function swap(\n        IERC20 _token1,\n        address _sender,\n        address _reciver,\n        uint256 payableAmount\n    ) public {\n        require(\n            _token1.allowance(_sender, address(this)) >= payableAmount,\n            \"Token 1 allowance too low\"\n        );\n        _safeTransferFrom(_token1, _sender, _reciver, payableAmount);\n    }\n\n    function _safeTransferFrom(\n        IERC20 token,\n        address sender,\n        address recipient,\n        uint256 amount\n    ) private {\n        token.transferFrom(sender, recipient, amount);\n    }\n\n    event Bought(uint256 amount);\n\n    function Buy(IERC20 _token, uint256 amount) public payable {\n        // uint256 amountTobuy = amount;\n        uint256 amountTobuy = msg.value;\n        uint256 tokenBalance = _token.balanceOf(address(this));\n        require(amountTobuy > 0, \"You need to send some ether\");\n        // require(amountTobuy <= tokenBalance, \"Not enough tokens in the reserve\");\n        _token.transfer(msg.sender, amountTobuy);\n    }\n}\n",
  "sourcePath": "/home/pushpendra/Work/projects/blockchain/test-blockchain/src/contracts/SendCoin.sol",
  "compiler": {
    "name": "solc",
    "version": "0.8.1+commit.df193b15.Emscripten.clang"
  },
  "schemaVersion": "3.4.1",
  "updatedAt": "2021-07-13T09:34:04.230Z",
  "devdoc": {
    "kind": "dev",
    "methods": {},
    "version": 1
  },
  "userdoc": {
    "kind": "user",
    "methods": {},
    "version": 1
  }
}